:020000040800F2
:100000002805002005010008BF210008911D0008F7
:10001000BD2100087F09000811260008000000002B
:10002000000000000000000000000000B7230008EE
:10003000D50B000800000000B5230008B923000814
:100040001F0100081F0100081F0100081F01000810
:100050001F0100081F0100081F0100081F01000800
:100060001F0100081F0100081F0100081F010008F0
:100070001F0100081F0100081F0100081F010008E0
:100080001F0100081F0100081F0100081F010008D0
:100090001F0100081F0100081F0100081F010008C0
:1000A0001F0100081F0100081F0100081F010008B0
:1000B0001F0100081F0100081F0100081F010008A0
:1000C0001F0100081F0100081F0100081F01000890
:1000D0001F0100081F0100081F0100081F01000880
:1000E0001F0100081F0100081F010008DFF810D0E1
:1000F00000F012FC004800474D2F0008AFF30080CD
:10010000280500200648804706480047FEE7FEE72E
:10011000FEE7FEE7FEE7FEE7FEE7FEE7FEE7FEE7B7
:100120001B240008ED000008202A04DB203A21FAF5
:1001300002F00021704721FA02F3D040C2F1200200
:100140009140084319467047D2B201E000F8012BF4
:10015000491EFBD270470022F6E710B513460A4647
:1001600004461946FFF7F0FF204610BDF0B480EAC0
:100170000102D40F4200B2EB410F02D20246084600
:1001800011464A0042D0C30DDDB2C1F3C752AD1AC9
:10019000202D35DAC1F3160141F4000204B15242B8
:1001A000C5F1200602FA06F12A411044B3EBD05FF4
:1001B00023D0C4B1012DA0EBC35009DCF0BC4FF03B
:1001C000004202EAC352DBB200F5000000F041BA7F
:1001D000400000F1807000EBC350A0F1807040EA55
:1001E000D170490009E0490841EAC071A0EBC35051
:1001F00000F50000400800EBC350F0BC00F020BA4E
:100200006142012202EB4101001BF6E7F0BC70479E
:1002100081F00041AAE780F00040A7E780EA0102F0
:1002200010B502F00043400022D04A001FD0010E5A
:1002300001EB1261C0F35600C2F3560240F4000015
:1002400042F40002A0FB022000047F39140400D015
:10025000401C50EA124001D44000491EC2B20C06B4
:1002600004EBD010401C4008802A02D003E000209C
:1002700010BD20F00100002900DA0020184310BD55
:1002800030B480EA010202F0004530F0004221F073
:10029000004013D090B1C30DD40DC2F31601C0F3CA
:1002A0001600E41A41F4000140F400027D3491424A
:1002B00001D3641C00E04900002C02DA30BC0020AD
:1002C00070474FF400000023914201D3891A034381
:1002D00040084FEA4101F7D151B1914202D14FF0AC
:1002E000004105E002D24FF0010101E06FF0010191
:1002F00003EBC450284430BC00F0A2B92DE9FE4FF6
:1003000081EA030404F0004421F0004100944FF01E
:10031000000B23F0004350EA01045ED052EA0304CC
:100320005BD0C3F30A54C1F30A552C44A4F2F3344E
:100330000194A0FB0254C1F3130141F48011C3F3F3
:10034000130343F4801301FB024400FB034E840AB1
:10035000970A44EA815447EA8357A4FB0768029549
:100360008D0A05FB07854FEA932C04FB0C542705E7
:10037000029D4FEA065847EA1637B5EB08056EEBC3
:10038000070C870E920E47EA811742EA8312A7FBF9
:100390000201B6EB0B0164EB00042B0D43EA0C33B6
:1003A0005E1844EB1C50DA465146E7FB0201C5F3E8
:1003B00013044FEA0B3343EA14534FEA0432019C0F
:1003C00043EA0603A4F10C040294009CCDE900B4B6
:1003D00000F07CF903B0BDE8F08F00200146F9E79A
:1003E0002DE9F04D81EA030404F0004B21F00045B3
:1003F00014464FF0000A23F0004150EA050220D0D5
:1004000054EA01021DD0C5F30A570246C5F313038F
:10041000C1F31300C1F30A5640F4801543F480136E
:10042000A7EB0608101BD64608F2FD3873EB050053
:1004300002D308F1010801E092185B41B8F1000F06
:1004400003DA00200146BDE8F08D00204FF4801152
:10045000064684460EE0171B73EB050705D3121BF7
:1004600063EB050306434CEA010C49084FEA3000F0
:1004700092185B4150EA0107EDD152EA030012D015
:1004800082EA040083EA0501084305D0101BAB4152
:1004900006D20122002306E000224FF0004302E0D2
:1004A0006FF0010253101AEB06004CEB085110EBF1
:1004B0000A0041EB0B01BDE8F04D00F0F8B870B553
:1004C00021F0004303430CD0C1F30A550024D5EBBF
:1004D000040564EB0403D617AD1AB34102DB002018
:1004E000014670BD201841EB025170BDC10F80EA7A
:1004F000E0700844CA079623002100F0AAB89623AA
:100500000022114600F0A5B80EB540F23341029129
:100510000021CDE900110A460B4600F0D7F803B0E0
:1005200000BD00F0004220F00040C10DC0F31600F5
:1005300040F400007F2901DA00207047962903DC8F
:10054000C1F19601C84001E096398840002AF4D0F4
:100550004042704700F0004230F000400AD0C10D28
:1005600001F56071C0F3160042EA0151C20840076C
:100570001143704700200146704701F0004330B43A
:1005800021F0004150EA010206D00A0DA2F5607286
:10059000C1F31301002A02DC30BC00207047440F75
:1005A00044EAC104C100E01830BC00EBC25000F0C6
:1005B00047B830B50B46014600202022012409E04F
:1005C00021FA02F59D4205D303FA02F5491B04FA0C
:1005D00002F52844151EA2F10102F1DC30BD2DE91F
:1005E000F05F0546002092469B46884606468146B7
:1005F00040241BE02846414647462246FFF794FD2B
:1006000053465A46C01A914110D311461846224605
:1006100000F094F92D1A67EB01084F46224601209D
:10062000002100F08BF917EB00094E41201EA4F1C8
:100630000104DFDC484631462A464346BDE8F09FC8
:100640000029A8BF7047401C490008BF20F00100E6
:10065000704710B4B0FA80FC00FA0CF050EA0104C4
:1006600004BF10BC704749B1CCF1200421FA04F456
:1006700011FA0CF118BF012121430843A3EB0C012F
:10068000CB1D4FEA00614FEA102042BF002010BC92
:10069000704700EBC35010440029A4BF10BC704742
:1006A000401C490008BF20F0010010BC704710B585
:1006B000141E73F1000408DA401C41F10001921885
:1006C0005B411A4301D120F0010010BD2DE9F04D2E
:1006D00092469B4611B1B1FA81F202E0B0FA80F283
:1006E0002032904600F02AF904460F4640EA0A00FC
:1006F00041EA0B0153465A46084313D0114653EAC8
:10070000010019D0C8F140025046FFF70DFD054623
:100710000E4650465946424600F010F9084305D0AF
:10072000012004E020463946BDE8F08D0020054355
:1007300046EAE0762C4337430A986305E40AA0EBC7
:1007400008000022FD0A44EA47540A3002D500207E
:100750000146E9E7010510196941DDE9084500197D
:100760006941BDE8F04DA2E72DE9FE4F804681EAE0
:100770000300C00F0C46009021F0004123F000451B
:10078000B8EB0200A94105D24046214690461C46DE
:100790000B46024623F00040104347D0270DC7F315
:1007A0000A00C3F30A510290401A019040286BDA04
:1007B000C3F3130040F4801B0098924620B100233D
:1007C000D2EB030A63EB0B0B01985946C0F14002D0
:1007D000504600F0B3F806460D4650465946019A79
:1007E00000F0BBF810EB08006141002487EA1152C9
:1007F00084EAE7731A4340D0009A62B3019A012A4F
:100800004FEA075215DC001B61EB02014FF000427A
:1008100002EA0752CDE90042001C41F58011324640
:100820002B46FFF753FF03B0BDE8F08F404621464B
:10083000F9E7001B61EB0201001C41F58013001871
:100840005B412018A2F5001747EB030140EAD57081
:10085000B6196D4111E06D084FEA360645EAC075DC
:100860004FEA0752001B61EB0201001C41F58011A9
:1008700049084FEA30000019514132462B4603B077
:10088000BDE8F04FFFF713BF00980122400000239E
:10089000D0EB020263EBE073009821464FEAE0746C
:1008A000B8EB000061EB0401E9E783F000435BE78C
:1008B00081F0004158E7C1F30A52C1F3130140F23D
:1008C000FF3341F480119A4202DA0020014670475A
:1008D00040F233439A42A2F2334202DC5242FFF723
:1008E00023BC00F02BB8000030B5041E71F10004E9
:1008F00004DB4FF00044404264EB0101141E73F12D
:10090000000405DB1C464FF00043524263EB040336
:10091000994208BF904230BD064C074D06E0E068A2
:1009200040F0010394E8070098471034AC42F6D336
:10093000FFF7E0FBB44C0008D44C0008202A04DB8D
:10094000203A00FA02F1002070479140C2F12003E2
:1009500020FA03F3194390407047202A06DBCB1797
:10096000203A41FA02F043EAE07306E041FA02F36A
:10097000D040C2F120029140084319467047FEE77B
:1009800070B5002400F058F8124D04E0641CE4B285
:10099000012000F065F92021284600F069FA10B125
:1009A000C82CF3D30FE0C82C0DD2002404E0641C43
:1009B000E4B2012000F054F92021284600F058FA52
:1009C00018B1F02C04D3012070BDF02CEFD3FAE75E
:1009D000002070BD000C014010B500F0BDF800F023
:1009E000A1F8FFF7CDFFCC2000F0C4F8BE2000F046
:1009F000C1F800F087F8044600F084F804EB00200A
:100A000080B21F21B1EBD02F09D1C043401C80B26E
:100A1000FFF77AFD0022074BFFF770FC05E0FFF7B8
:100A200073FD6FF00302FFF74AFDBDE81040FFF7CA
:100A3000A4BD00000000B0BF1FB500200190202021
:100A4000009001200290032003906946014800F0C5
:100A50001FF91FBD000C01401FB520200090012090
:100A600001900290032003906946024800F010F9BB
:100A70001FBD0000000C01400D4800B5816985B024
:100A800041F0080181618069694600F00800049026
:100A9000202000900120019002900320039005483F
:100AA00000F0F6F800F03EF8FFF76AFF05B000BD71
:100AB00000100240000C014010B5FFF7CDFF104CB4
:100AC00000222021204600F0D8F9022000F0C8F8CA
:100AD00001222021204600F0D0F9FFF7ADFF0C20C5
:100AE00000F0BEF82021204600F0C2F908B1012430
:100AF00000E00024322000F0B3F8204610BD0000D2
:100B0000000C014070B500255FF00104FFF7D4FF31
:100B1000C001641C40EA5500E4B2C5B2082CF5D906
:100B2000284670BD10B5FFF797FF0A4C0022202120
:100B3000204600F0A2F940F2EE2000F091F80122E8
:100B40002021204600F099F9BDE810400F2000F068
:100B500087B80000000C014010B5FFF7E3FFFFF776
:100B60000FFFCC2000F006F8BDE81040442000F054
:100B700001B8000070B50546FFF76EFF144E012462
:100B800015F0010F4FEA55054FF000024FF020011C
:100B900030460BD000F071F9022000F061F801221C
:100BA0002021304600F069F93C200AE000F065F9A8
:100BB0003C2000F055F801222021304600F05DF97C
:100BC000022000F04DF8641CE4B2082CD8D970BDA6
:100BD000000C0140704772B6FEE7000010B501F04E
:100BE0003FF8084C20606168401AFFF77FFC064917
:100BF000FFF746FBFFF795FCA060A0F50050A83872
:100C000010BD00000000002000007A4410B501F083
:100C100073F8084CE0602169401AFFF767FC064949
:100C2000FFF72EFBFFF77DFC6061A0F5045028382C
:100C300010BD00000000002000007A4470B504469A
:100C400000F020F90546601C02D0044800780444F6
:100C500000F018F9401BA042FAD370BD3400002008
:100C600070B54FF6FA75094E281A84B2306844629E
:100C7000304600F027FE306801E0416A8CB2AC4299
:100C8000FBD3BDE87040014800F044BE9C0000204A
:100C90002DE9F84FDFF8B891002409F1040A0AF1B0
:100CA000040B23460F270BF1040EC9E00125A540D4
:100CB0002A40AA427DD1674ED1F804C0ACEB0608A9
:100CC000B44532D014DCBCF1030F3AD009DCBCF1DE
:100CD000000F2AD0BCF1010F1CD0BCF1020F31D1A2
:100CE0001DE0BCF1110F17D0BCF1120F2AD119E091
:100CF000B8F5881F19D006DCB8F5803F15D0B8F5D7
:100D0000801F1FD111E0B8F5001F0ED0B8F5041FE9
:100D100018D10AE0CB6815E0CB681B1D12E0CB6848
:100D200008330FE0CB680C330CE08B682BB1012B40
:100D30004FF0080303D0456104E0042302E005619D
:100D400000E00023FF2A01D8064601E000F1040676
:100D50004FEA840501D9A5F12005D6F8008007FAED
:100D600005FC28EA0C0803FA05F548EA0508C6F868
:100D700000804D68ED0062D5374DAE6946F0010642
:100D8000AE61AD6924F0030605F001050095334D11
:100D900006EB050CDCF80850A607360F07FA06F834
:100DA00025EA0805DFF8B880404503D14FF0000878
:100DB00017E044E0DFF8AC80404502D14FF0010875
:100DC0000FE0DFF8A480404502D14FF0020808E0B0
:100DD000DFF89880404502D14FF0030801E04FF062
:100DE000040808FA06F848EA0508CCF808804D68B7
:100DF000D9F80060ED034D4601D5164300E0964357
:100E00002E604D68DAF80060AD03554601D51643F3
:100E100000E096432E604D68DBF80060ED025D4611
:100E200001D5164300E096432E604D68DEF8006061
:100E3000AD02754601D5164300E096432E60641C52
:100E40000D682A46E5407FF431AFBDE8F88F000019
:100E50000004014000001110001002400000014099
:100E600000080140000C0140001001400014014046
:100E70008068084000D0012070470AB101617047C6
:100E80000904FBE701488068704700003400002037
:100E900070B5040025D094F83D00002520B984F8F1
:100EA0003C50204600F050F9242084F83D00206892
:100EB000016821F0010101602068016841F40041EE
:100EC00001602068016821F40041016000F08AFAA5
:100ED0004D4A6168914201D84C4900E04C49884232
:100EE00001D2012070BD4B492368B0FBF1F15E686F
:100EF00026F03F060E435E606368934206D94FF4C6
:100F0000967359434FF47A73B1FBF3F12368491C8C
:100F10001E6A26F03F06314319626168914210D87B
:100F20004900401EB0FBF1F2521CC2F30B02042A2E
:100F300001D2042022E0B0FBF1F0401CC0F30B0012
:100F40001CE0A268F2B301EBC10303EB0116431EE0
:100F5000B3FBF6F35B1C43F480431B0549D092B30B
:100F600001EBC10202EB0111401EB0FBF1F0401C8D
:100F7000C0F30B0040F4804040F400402168CA698F
:100F80004CF6FF739A431043C861D4E9071001433C
:100F90002068026822F0C00211430160D4E9030115
:100FA00001432068826848F2FF339A43114381600D
:100FB000D4E9050108432168CA6822F0FF02104302
:100FC000C86001E00EE016E02068016841F0010110
:100FD00001602564202084F83D00256384F83E509C
:100FE000002070BD01EB4106431EB3FBF6F35B1C12
:100FF000B3E70120C2E701EB4101401EB0FBF1F075
:10100000401CC0F30B00B7E7A086010080841E00DF
:1010100000093D0040420F002DE9FF4F83B09A4682
:10102000DDE9119793460446DDF84080FFF72AFF7B
:10103000054694F83D0020287FD11923012240491C
:101040002046009500F036FF002876D194F83C0049
:10105000012872D0012084F83C0020680168C9078B
:1010600003D1016841F0010101602068016821F4A9
:1010700000610160212084F83D00402084F83E009A
:1010800000262664C4F82480A4F82A90608D208568
:101090002C48E062CDE9007553465A462046049933
:1010A00000F08EFE70B930E02A463946204600F046
:1010B00080FF58B1206C042804D12068016841F4F5
:1010C00000710160012007B0BDE8F08F606A2168FF
:1010D00000780861606A401C6062218D491E89B2F7
:1010E0002185628D521E628522685369DB435B074E
:1010F0000BD469B100781061606A401C6062208D79
:10110000401E2085608D401E6085208D0028CBD13B
:101110002A463946204600F0A7FE0028CAD154F8D6
:101120003D0B016841F400710160202004F81E09A4
:10113000E67766770020C6E7FFE70220C3E70000F6
:10114000020010000000FFFF10B586B000210091E2
:1011500001910291039100680F4988421AD10F4C06
:10116000A06940F00800A061A069694600F008008D
:101170000490C020009012200190032003900848A2
:10118000FFF786FDE06940F40010E061E06900F4DB
:101190000010049006B010BD005400400010024042
:1011A000000C014002488168027811448160704758
:1011B00034000020074810B5016841F010010160BB
:1011C000032000F067F8002000F006F800F024F893
:1011D000002010BD0020024070B50D4D04464FF4B4
:1011E0007A712878B1FBF0F00A490968B1FBF0F098
:1011F00000F0DEFA48B9102C07D200222146501E1A
:1012000000F028F800206C6070BD012070BD000067
:1012100034000020400000200C4808B5816941F0EE
:1012200001018161816901F001010091C16941F011
:101230008051C161C06900F080500090044841684D
:1012400021F0E06141F00071416008BD00100240F2
:1012500000000140F0B40E4B1B680C46C3F30223A0
:10126000C3F10705042D00D90425191D072901D252
:10127000002300E0DB1E012606FA05F1491E21408D
:1012800099409E40761E16403143F0BC01F0ECB907
:101290000CED00E0064900F0070208684FF6FF0376
:1012A000184040EA0220034A1043086070470000DB
:1012B0000CED00E00000FA052DE9F0470F460500AF
:1012C00061D0434E306800F00700B84209D2306860
:1012D00020F0070038433060306800F00700B84263
:1012E00051D128683B4C810712D5400703D560686F
:1012F00040F4E06060602878000703D5606840F43F
:10130000605060606068A96820F0F0000843606089
:101310002878C00728D06868012810D021680228E2
:1013200010D0890700292EDA616821F003010143FA
:101330006160FFF7A7FD804641F288390DE0216822
:101340008903EFE78901EDE7FFF79CFDA0EB0801BA
:10135000494502D90320BDE8F0876068696800F05C
:101360000C00B0EB810FEFD1306800F00700B842FD
:101370000BD9306820F0070038433060306800F047
:101380000700B84201D00120E5E72878400705D5DD
:101390006068E96820F4E06008436060287800072E
:1013A00006D56068296920F4605040EAC100606099
:1013B00000F038F86168084AC1F30311515CC84075
:1013C0000649086006480068FFF706FF0020C2E7EC
:1013D00000200240001002409A4C0008400000200B
:1013E000380000200448054900684968044AC1F3F0
:1013F0000221515CC84070474000002000100240AC
:10140000AA4C00080448054900684968044AC1F329
:10141000C221515CC84070474000002000100240CB
:10142000AA4C000812A185B00FC98DE80F0014A0C6
:10143000144A006804905168134801F00C03042B0F
:1014400010D0082B0ED1C1F38343C9031DF803004C
:101450000AD5516804AAC1F34041515C0A4A50437D
:10146000B0FBF1F005B0704708494843FAE70000C7
:1014700002030405060708090A0B0C0D0E0F1010D5
:10148000010200000010024000127A0000093D0035
:101490002DE9F84F040070D02078C04DC00749D026
:1014A0006868C0F38100012807D06868C0F3810034
:1014B000022809D16868C00306D52868800339D599
:1014C00060680028E7D035E06068B0F5803F0BD059
:1014D00010B1B0F5A02F11D0286820F4803028601A
:1014E000286820F4802002E0286840F480302860DA
:1014F000606890B1FFF7C6FC06460AE0286840F431
:1015000080202860F0E700BFFFF7BCFC801B642848
:1015100073D828688003F7D50CE0FFF7B3FC0646C4
:1015200005E000BFFFF7AEFC801B6428F0D82868F8
:101530008003F7D420789A4E80074FF001094FF0CE
:10154000000839D5686810F00C0F07D06868C0F340
:101550008100022809D16868C00306D42868800782
:1015600014D52069012808D110E02069B0B1C6F86F
:101570000090FFF787FC074605E00AE1FFF782FCD1
:10158000C01B0228C4D828688007F7D5286861697D
:1015900020F0F80040EAC10028600DE0C6F80080A5
:1015A000FFF770FC074604E0FFF76CFCC01B022845
:1015B00023D828688007F7D4207800072CD57948ED
:1015C000A169D9B1C0F80090FFF75CFC074604E0C0
:1015D000FFF758FCC01B02280FD8686A8007F7D5B0
:1015E00071484FF4FA510068B0FBF1F0009000BF71
:1015F0000098411E0091FAD20EE080E0C0F8008011
:10160000FFF740FC074604E0FFF73CFCC01B022844
:1016100075D8686A8007F7D42078400760D5E869F4
:101620000027C00008D4E86940F08050E861E8690C
:10163000012700F0805000905C480168C90513D470
:101640000168834641F480710160FFF71BFC82460C
:1016500006E000BFFFF716FCA0EB0A0064284ED896
:10166000DBF80000C005F5D5E06801280AD008B114
:10167000052813D0286A20F001002862286A20F08B
:10168000040002E0286A40F001002862E06841F2AC
:10169000883B98B1FFF7F6FB82460BE0286A40F0E2
:1016A00004002862EEE700BFFFF7ECFBA0EB0A01A5
:1016B00059455AD8286A8007F6D50CE0FFF7E2FBB7
:1016C000824605E0FFF7DEFBA0EB0A0159454CD846
:1016D000286A8007F6D41FB1E86920F08050E861DD
:1016E000E06988B36968C1F38101022944D0022806
:1016F000C6F8608004D0FFF7C5FB044638E034E04C
:10170000FFF7C0FB074604E0FFF7BCFBC01B022845
:101710002BD828688001F7D4206AB0F5803F05D126
:101720006868A16820F4003008436860D4E90801C3
:101730000843696821F4741108436860C6F8609032
:10174000FFF7A0FB044606E025E000BFFFF79AFB89
:10175000001B022809D828688001F7D51BE000BFCC
:10176000FFF790FB001B022802D90320BDE8F88F89
:1017700028688001F4D40EE00128F7D06868226A56
:1017800000F48031914204D1616A00F47010884203
:1017900001D00120EAE70020E8E700000010024045
:1017A000000042428004424240000020007000409D
:1017B00010B5401EB0F1807F01D3012010BD4FF065
:1017C000E02460610F21601700F04EFF0020A0614F
:1017D00007202061002010BD70B590F83C20012A40
:1017E00026D0012480F83C40022280F83D20036886
:1017F0005A689D6822F070060A6832435A600D4BA1
:1018000002689A4208D0B2F1804F05D00A4B9A4242
:1018100002D00A4B9A4204D1496825F0800319434B
:10182000916080F83D40002180F83C10084670BD72
:10183000022070BD002C0140000400400008004060
:1018400010B5040003D094F83D0010B107E001206A
:1018500010BD002084F83C00204600F01FF8022054
:1018600084F83D00211D206800F0D8FD012084F897
:10187000460084F83E0084F83F0084F8400084F875
:10188000410084F8420084F8430084F8440084F85E
:10189000450084F83D00002010BD000008B5006838
:1018A0000649884208D10648816941F40061816196
:1018B000806900F40060009008BD0000002C014029
:1018C0000010024090F83D10012901D0012070471E
:1018D000022180F83D1000680B49884208D0B0F121
:1018E000804F05D00949884202D00949884204D175
:1018F000816801F00701062903D0016841F0010168
:101900000160002070470000002C014000040040EE
:101910000008004001680A6A41F211131A4207D117
:101920000A6A9B101A4203D10A6822F001020A6077
:10193000012180F83D100020704770B5044690F8F2
:101940003C00012817D0012584F83C50022084F87F
:101950003D002068826822F0770222F47F42826094
:101960000868502830D00DDC20284DD005DC98B315
:1019700010283BD148E0022070BD302844D04028D8
:1019800034D139E0602828D0702806D0B0F5805FC7
:101990002CD0B0F5005F29D10AE0CB68D1E9012154
:1019A000206800F071FD2068816841F0770109E04E
:1019B000CB68D1E90121206800F066FD20688168CC
:1019C00041F48041816011E0CA684968206800F0F4
:1019D0006DFD5021206807E016E0CA68496820685C
:1019E00000F075FD6021206800F058FD84F83D503E
:1019F000002084F83C0070BDCA684968206800F087
:101A000055FD40212068EFE7226801461046EBE7CC
:101A100070B5040004D094F83900002510B106E038
:101A2000012070BD84F83850204600F023F82420AF
:101A300084F839002068C16821F40051C160204653
:101A400000F058FD2068016921F49041016120688F
:101A5000416921F02A0141612068C16841F40051C7
:101A6000C160E563202084F8390084F83A00002042
:101A700070BD000030B585B000240094019402943C
:101A8000039400681449884224D11448816941F4C0
:101A900080418161816901F480410491816941F053
:101AA0000401816180690E4D00F0040004904FF440
:101AB00000700090022001900320039069462846A0
:101AC000FFF7E6F82815CDE9000469462846029498
:101AD000FFF7DEF805B030BD0038014000100240CD
:101AE000000801402DE9F843044690F839001F46EC
:101AF00016460D4620284CD1C5B1BEB194F8380029
:101B0000012846D0012084F838004FF00008C4F8BE
:101B10003C80212084F83900FFF7B4F9A68481467F
:101B2000E684A068B0F5805F03D004E00120BDE842
:101B3000F883206928B12E465FF0000584F83880CC
:101B40000EE00026FAE78021204600F02FFDA0B924
:101B5000AEB116F8010B21684860E08C401EE084AD
:101B6000E08C4B464FF0000200970028EBD14FF07D
:101B70004001204600F01AFD30B10320D7E735F8C8
:101B8000020BC0F30800E6E7202084F839000020AB
:101B9000CDE70220CBE7000070B50122074D94038A
:101BA00021462846FFF769F91420FFF759F8214626
:101BB0002846BDE870400022FFF75FB9000C0140E5
:101BC00070B5002506462C4607E000BF00F010F86F
:101BD0002946FEF7CBFA0546641CB442F6DB3046D4
:101BE000FEF78DFC01462846BDE87040FEF748BB75
:101BF00070B5FFF7D1FF104D4FF400442146284641
:101C0000FFF736F90028F9D0012000F01BF8214633
:101C10002846FFF72DF90028F9D100F013F80748FE
:101C20000068406AFEF770FC0022054BFEF7D8FB07
:101C3000BDE87040FEF7A1BC000C01409C000020F4
:101C400000004D4030B10549002009684862034852
:101C5000FFF738BE0148FFF75DBE00009C00002082
:101C600070B5244C012220212046FFF706F90120FF
:101C7000FEF7F6FF002210212046FFF7FEF80120B4
:101C8000FEF7EEFF002520212046FFF7F1F800289F
:101C9000F9D10026012210212046FFF7EEF801209D
:101CA000FEF7DEFF6D00002210212046FFF7E5F869
:101CB0000120FEF7D5FF20212046FFF7D9F800B11B
:101CC0006D1C761CF6B2182EE4D30122102120469A
:101CD000FFF7D3F885F400050120FEF7C1FF0022CD
:101CE00010212046FFF7C9F80120FEF7B9FF28466A
:101CF00070BD00000008014070B5244C0122802115
:101D00002046FFF7BAF80120FEF7AAFF0022402183
:101D10002046FFF7B2F80120FEF7A2FF0025802140
:101D20002046FFF7A5F80028F9D10026012240211E
:101D30002046FFF7A2F80120FEF792FF6D00002277
:101D400040212046FFF799F80120FEF789FF802106
:101D50002046FFF78DF800B16D1C761CF6B2182EE8
:101D6000E4D3012240212046FFF787F885F40005DF
:101D70000120FEF775FF002240212046FFF77DF885
:101D80000120FEF76DFF284670BD000000080140ED
:101D9000FEE701684A69D24352050FD46FF48062AE
:101DA0004A61002140F8301F20224273817302698A
:101DB00042F0040202610173012070470020704765
:101DC0002DE9F843044600680D46DDE908970168EF
:101DD0009846164641F4807101604B4600224FF050
:101DE00001112046009700F065F848B120680068AE
:101DF000C00502D54FF4007020640320BDE8F883CD
:101E0000216805F0FE0008613B464A461549204618
:101E100000F084F888B920684169806900903A46EA
:101E20004946204600F0C5F848B1206C042804D18A
:101E30002068016841F4007101600120DEE7F5B21D
:101E4000B8F1010F09D02168300A08613A464946C5
:101E5000204600F0AEF80028E7D120680561002098
:101E6000CCE700000200010070B516460D4604469E
:101E70000DE02046FFF78DFF08B1012070BD681C02
:101E800005D0FEF7FFFF801BA84207D835B12068B8
:101E90004069C0434007ECD4002070BD002044F8E6
:101EA000300F20216173A073216941F0200121616D
:101EB0002073E2E72DE9F0471E4690460D460446A2
:101EC000C1F30747DDF8209008E0701C06D0FEF74C
:101ED000D9FFA0EB0900B0420FD876B12068012FDE
:101EE00018D0806925EA00000004000C14D00021FD
:101EF0004145EAD00020BDE8F087002044F8300FCB
:101F000020216173A073216941F0200121612073B8
:101F10000120F0E74069E5E70121E9E72DE9F04715
:101F20009A4691460E46044600254FF02008C1F31C
:101F3000074725E020684069C043400514D4206865
:101F4000016841F40071016021686FF480604861AC
:101F5000256384F83D8084F83E50206C40F00400F6
:101F6000206484F83C501FE0B9F1FF3F08D0FEF731
:101F700089FFA0EB0A0149450CD8B9F1000F09D03F
:101F80002068012F13D0806926EA00000004000CAD
:101F90000BD0CFE744F8305F84F80D80A57320693B
:101FA00040F02000206125730120BDE8F0874069E2
:101FB000EAE770B516460D4604460DE02046FFF7E9
:101FC000E8FE08B1012070BD681C05D0FEF75AFF7D
:101FD000801BA84207D835B120684069C04300067D
:101FE000ECD4002070BD002044F8300F2021617334
:101FF000A073216941F0200121612073E2E7000014
:102000002DE9F04186B000243148009401940294F7
:102010000394816941F010018161816901F010012F
:102020000491816941F020018161816901F0200101
:102030000491816941F004018161816901F0040129
:102040000491816941F0080181618069214F00F0AC
:1020500008000490002250213846FEF70EFFDFF8FA
:102060007880002244F220014046FEF706FF50200F
:1020700001250326CDE90005CDE90246694638462B
:10208000FEF706FEA020CDE900046946384602941A
:10209000FEF7FEFDA803CDE900050220CDE902060A
:1020A00069464046FEF7F4FDE803CDE900046946C1
:1020B00040460294FEF7ECFD2020CDE90005CDE975
:1020C000025669464046FEF7E3FD06B0BDE8F081E2
:1020D0000010024000080140000C01400D4810B5FE
:1020E0000B4901600C49416000214FF4804281603E
:1020F000C0E9031241618161C1610162FEF7C8FE5E
:10210000002803D0BDE81040FEF765BD10BD0000FB
:102110000054004048000020A086010010B586B0A1
:1021200000241748009401940294039404941349E2
:10213000059401604721C0E901144FF6FF71C0E921
:10214000031444618461FFF77BFB08B1FEF743FD94
:102150004FF48050009069460948FFF7EEFB08B144
:10216000FEF739FD049404A905480594FFF734FBF4
:10217000002801D0FEF72FFD06B010BD002C014055
:102180009C0000200C4810B50A4901604FF4E13171
:102190004160002181600C22C160C0E904128161AC
:1021A000C161FFF735FC002803D0BDE81040FEF701
:1021B00012BD10BD00380140E4000020FEE7FEE73C
:1021C00070B5002404F1B000C0B200F0CFF80020D8
:1021D00000F0CCF8102000F0C9F80025002000F035
:1021E000D7F86D1CEDB2802DF8D3641CE4B2082C36
:1021F000E8D370BD10B5C820FEF720FDBDE8104043
:1022000000F008BA10B50446B031C8B200F0AEF81C
:10221000102040EA141000F0A9F804F00F00BDE807
:10222000104000F0A3B800002DE9F041203A00244E
:102230000D468046D6B27F2803D900208D1C8046EB
:10224000EDB2102B29460FD0FFF7DCFF164906EB45
:10225000460001EB4005285D00F09AF8641CE4B2EA
:10226000062CF8D3BDE8F081FFF7CCFF0F4F00BF7D
:1022700004EB0610385C00F08BF8641CE4B2082C08
:10228000F6D36D1CE9B24046FFF7BCFF5FF00004D7
:1022900004EB06103844007A00F07AF8641CE4B2CB
:1022A000082CF5D3DEE70000A4320008CC34000887
:1022B0002DE9F04115460E460746FFF7A3FF0F49EB
:1022C000C5EB0520002401EB4005285D00F060F817
:1022D000641CE4B2202CF8D3761CF1B23846FFF728
:1022E00091FF0024281990F8FF0000F051F8641CB9
:1022F000E4B2202CF6D3BDE8F0810000AC3A00082F
:102300002DE9F05F0026DDF828901D4692468B46A9
:10231000804634464FEA590723E0281B401EC1B2CD
:102320000A2000F0B7FFBAFBF0F00A21B0FBF1F28F
:1023300001FB120026B9691E8C4201DA38B1012670
:102340003030C2B207FB0480C0B24B4604E007FB4A
:102350000480C0B24B4620225946FFF765FF641C3B
:10236000E4B2AC42D9D3BDE8F09F000001B584B01F
:1023700001214FF4807204A88DE807000B4600226B
:1023800078210248FEF748FE05B000BD4800002055
:1023900001B584B001214FF4807204A88DE80700D4
:1023A0000B46402278210248FEF736FE05B000BDFC
:1023B0004800002070477047FEF7F4BE30B58FB07C
:1023C00028216846FDF7C7FE14210AA8FDF7C3FEC1
:1023D00001210804CDE90010002402940225049193
:1023E000CDE907504FF4E01009906846FFF750F828
:1023F00008B172B6FEE70F20CDE90A054FF4806000
:10240000CDE90C4002210AA80E94FEF755FF0028E2
:1024100001D072B6FEE70FB030BD7047F0B502686C
:10242000164B174C174D4FF08047984205D0B842D5
:1024300003D0A04201D0A84203D122F070064A681E
:102440003243984205D0B84203D0A04201D0A842FE
:1024500003D122F44074CA6822434C6922F08002FE
:10246000224302608A68C2620A688262984201D18D
:102470000969016301214161F0BD0000002C0140A8
:10248000000400400008004010B5846842EA0322BE
:1024900024F47F440A432243826010BD826822F004
:1024A00070020A4342F007018160704710B5036A69
:1024B000046A24F001040462846924F0F00444EA0C
:1024C000021423F00A020A438461026210BD10B5AF
:1024D000036A23F0100303628369046A23F47043E0
:1024E00043EA023224F0A00343EA0111826101624F
:1024F00010BD000070B5044600680169E26821F46F
:102500004051114301612169A06808436169084392
:102510002168CA6841F20C639A430243CA6020688A
:102520004169A26921F44071114341611E4920684B
:10253000884202D1FEF766FF01E0FEF753FF00EB91
:10254000C00101EB0012606864218000B2FBF0F36F
:10255000B3FBF1F36FF018067343B2FBF0F5B2FB77
:10256000F0F605EB8305322303EB0515B5FBF1F51A
:10257000B6FBF1F605F0F00505EB0615B2FBF0F63B
:10258000B2FBF0F0B0FBF1F06FF01802504306EB35
:10259000800003EB0010B0FBF1F0216800F00F00A9
:1025A0002844886070BD0000003801402DE9F041EA
:1025B000984617460E460446069D1DE0681C1BD033
:1025C0002DB1FEF75FFCA0EB0800A84214D92068EB
:1025D000C16821F4D071C1602068416921F0010116
:1025E0004161202084F8390084F83A00002084F802
:1025F00038000320BDE8F0812068006836EA00005A
:1026000004D00020B842D9D00020F3E70120F9E738
:10261000FEE70000FEB50024094F4FF48075012647
:102620003819CDE9000601230022782102950548DA
:10263000FEF7F2FC641CE4B21B2CF1D3FEBD0000DB
:1026400018000020480000200FB4054B10B503A966
:10265000044A029800F0EAF810BC5DF814FB000090
:10266000352F0008440000200907090E002804DB6C
:1026700000F1E02080F80014704700F00F0000F136
:10268000E02080F8141D704702E008C8121F08C13E
:10269000002AFAD170477047002001E001C1121FE3
:1026A000002AFBD1704700002DE9FF5F82B00021B6
:1026B000DDE90430020DDDF840B0034318D044F6E4
:1026C0001050A2F2FF3242431514119801281FD076
:1026D000A5EB0B00401C5FEA000A4FF000064E4FCE
:1026E000DFF83891B046504615D5CAF1000413E022
:1026F000119801244AA3012801D16FEA0B01029825
:10270000119AC0E90031C0E9024206B0BDE8F09F6D
:10271000CBF10000DFE704460021404A491842EBB4
:102720000450CDE9001012E0E00707D032463B46E6
:1027300040464946FDF7E2FD8046894632463B4623
:1027400010461946FDF7DAFD06460F466410002CC8
:10275000EAD1DDE90401DDE90023BAF1000F06DA70
:10276000FDF7CCFD42464B46FDF7C8FD05E0FDF701
:1027700037FE42464B46FDF733FE04460E46002226
:10278000284BFEF7B1F803D84FF0FF30014607E0C1
:102790000022254B20463146FDF7E6FFFEF78BF879
:1027A000102409E0002C0ADB0A220023FDF717FFA2
:1027B000039B30321A55641E50EA0102F2D1641CA8
:1027C000039AC4F111031444119A012A03D001227F
:1027D00008430DD10AE0084304D000204FF0110B4C
:1027E000119072E7A3EB0B056D1E0DE05B4504DD58
:1027F0004FF0000205F1010504E003DA4FF000029A
:10280000A5F10105002AECD002981199C0E9023126
:10281000C0E9004579E70000000014400000F03FE7
:10282000300000000000F0430000E03F2DE9FF4FC2
:1028300095B09A46884606460025EEE1252877D1D0
:1028400000242746F94A0121039400E0044316F8C6
:10285000013F203B01FA03F01042F7D130782A28DB
:1028600011D06FF02F033078A0F13002092A16D86A
:10287000039A44F0020402EB820203EB420210448A
:10288000761C0390EFE758F8042B0392002A03DA32
:10289000504244F40054039044F00204761C307813
:1028A0002E2816D116F8010F44F004042A280DD062
:1028B0006FF02F023078A0F13003092B09D807EB15
:1028C000870302EB4303C718761CF3E758F8047B31
:1028D000761C30786C280FD006DC4C2817D068287E
:1028E0000DD06A2814D104E0742810D07A280FD1B2
:1028F0000DE044F400140AE044F4801401E044F4D0
:1029000040147278824202D104F58014761C761C41
:10291000307866280BD013DC582877D009DC0028E3
:1029200075D04528F6D04628F4D047281AD193E12F
:1029300018E0632835D0642879D0652812D18BE15E
:10294000702873D008DC6728F1D069286FD06E2812
:102950000DD06F2806D1ACE073282CD0752874D028
:10296000782853D05246179990476D1C54E1C4F310
:102970000250022809D003280DD0D8F800100428EE
:102980000DD00D6008F1040846E1D8F80010EA17F0
:10299000C1E90052F6E7D8F800100D80F2E70D709B
:1029A000F0E718F8041B8DF8001000208DF80100E6
:1029B000EB46012003E058F804BB4FF0FF306107FD
:1029C0004FF0000102D40DE009F101018946B9423E
:1029D0000FDA8145F8DB1BF809100029F4D108E073
:1029E00009F1010189468142FADB1BF8091000292F
:1029F000F6D103985346A0EB090721463846179AAB
:102A000000F080FA284400EB090507E044E008E103
:102A10000DE01BF8010B524617999047B9F10109D7
:102A2000F7D2534621463846179AF2E039E00A2198
:102A3000C4F302524FF0000B0091022A06D058F85E
:102A4000040BC117032A09D00AE023E008F10700AC
:102A500020F00702F2E80201904605E000B2C1173B
:102A6000042A01D140B2C117002906DA0A46002122
:102A7000404261EB02012D2202E0220504D52B2207
:102A80008DF80420012203E0E20701D02022F7E7BD
:102A9000914657E00A2100E010214FF0000B009111
:102AA0000BE010214FF0000B44F0040408270091C4
:102AB00003E008204FF0000B0090C4F30252022AFA
:102AC00005D058F8040B0021032A08D008E008F1CB
:102AD000070020F00702F2E80201904603E080B20E
:102AE000042A00D1C0B24FF0000922072AD532785B
:102AF000702A07D0DDF800C08CF0100C5CEA0B0CDB
:102B000005D00EE040228DF80420012208E050EAB2
:102B1000010306D030238DF804308DF80520022201
:102B20009146009B83F0080353EA0B030AD150EA55
:102B3000010201D1620705D530228DF804204FF043
:102B400001097F1E3278582A04D039A20C920CAAAF
:102B500002920BE03BA2F9E75B46009AFDF73FFDCE
:102B60000C9B9B5C029A521E0292137050EA010267
:102B7000F2D1029804A9081A00F1200B600702D5CF
:102B800024F4803400E001275F4502DDA7EB0B0051
:102B900000E0002000EB0B01009003984944401A2C
:102BA0000390E00306D453462146179A039800F099
:102BB000A9F90544002706E001A85246C05D17990F
:102BC00090476D1C7F1C4F45F6DBE0030CD5534648
:102BD0002146179A039800F095F9054404E0302047
:102BE0005246179990476D1C0099481E0090002985
:102BF000F5DC08E00298029952460078491C0291DF
:102C0000179990476D1CBBF10001ABF1010BF1DC92
:102C10005BE100F065F90544761C307800287FF40C
:102C20000DAE19B02846BDE8F08F0000092801005C
:102C30003031323334353637383961626364656632
:102C400000000000303132333435363738394142F4
:102C50004344454600000000600700D4062708F101
:102C6000070020F00700F0E80223804603F0004C44
:102C70005FEA0C0001D097A009E0200501D596A0DD
:102C800005E0E00701D095A001E0AFF24C00139001
:102C9000307823F0004365280CD006DC452809D0A5
:102CA00046281DD047287FD13BE0662818D06728EA
:102CB0007AD136E00021112F01DB112000E0781CD1
:102CC000CDE9000104A90CA8FFF7EEFCDDE90D0138
:102CD0000C9A4FF0000B07F10109109200914EE0A1
:102CE0004FF000400097CDE9011004A90CA8FFF7B0
:102CF000DBFCDDE90D020C9B0F994FF0000B9146B8
:102D00001093009211B9791C00EB0109B7EB09008F
:102D100003D4C0F1FF3B07F10109A9EB07000190C3
:102D200042E0012F00DA01270021112F01DD1120DF
:102D300000E03846CDE9000104A90CA8FFF7B4FC77
:102D4000DDE90D010C9A00914FF0000BB94610928D
:102D500021070FD4009A4A4503DA914601E0A9F110
:102D60000109B9F1010F05DD109AA9F10101515CCA
:102D70003029F4D0B84202DA10F1040F03DA01214D
:102D8000CDE9011010E0002803DC8344A9EB000129
:102D900002E0411C494500DD8946A0EB0B00401CC8
:102DA00001904FF000400290200705D4019848455B
:102DB00002DB4FF0FF30019000208DF84B000298AD
:102DC0000DF14B07B0F1004F25D002200C902B20C5
:102DD0000D90029800280CDA404202902D200D90B0
:102DE00007E00A210298FDF7E4FB3031029007F872
:102DF000011D0C99481E0C900029F2DC0298002855
:102E0000EFD1791E0D980870307800F0200040F066
:102E1000450007F8020D11A8C01BC01D02901398B1
:102E2000007800B1012000EB0901019801EBE0718D
:102E3000029801440398401A401E0390E00306D410
:102E400053462146179A039800F05CF805441398FE
:102E5000007818B15246179990476D1CE00323D5AE
:102E600053462146179A039800F04CF805441BE09E
:102E7000BBF1000F07DB0098584504DD1098179947
:102E800010F80B0001E01799302052469047019846
:102E90000BF1010B401E05F10105019004D12E201C
:102EA0005246179990476D1CB9F10001A9F101092B
:102EB000DEDC05E017F8010B5246179990476D1CB0
:102EC0000299481E02900029F4DC53462146179AC5
:102ED00003989EE62D0000002B000000200000005B
:102EE0002DE9F041044600251E461746880404D407
:102EF00005E039462020B0476D1C641EF9D52846F0
:102F0000BDE8F0812DE9F041044600251E469046BB
:102F1000C80301D5302700E02027880404D505E048
:102F200041463846B0476D1C641EF9D52846BDE8B9
:102F3000F081000013B54FF6FF7301226946024885
:102F4000FEF7D0FD00981CBDE400002094B04FF0C7
:102F5000000845464446FEF72DF9FFF72FFAFFF724
:102F60004FF8FFF7BBF8FFF7D9F8FFF70BF9FFF7BA
:102F700041F9FFF725F9002108460A46FFF798F9BD
:102F80001026002101223046FFF792F94FF0200B66
:102F9000002108225846FFF78BF94FF0300A002134
:102FA00010233A225046FFF73FF9022700203A4605
:102FB0003946FFF77DF9032239463046FFF778F9A5
:102FC000082239465846FFF773F910233A2239464A
:102FD0005046FFF729F9042700203A463946FFF703
:102FE00067F9052239463046FFF762F9062239466D
:102FF0005846FFF75DF9082239465046FFF758F961
:103000004FF0400910233A2239464846FFF70CF9A1
:103010000627002004223946FFF74AF905223946DF
:103020003046FFF745F9072239465846FFF740F981
:10303000082239465046FFF73BF910233A22394619
:103040004846FFF7F1F84FF4FA7705E06BA0FFF779
:10305000FBFA3846FDF7F2FDFDF70EFD0028F5D12D
:103060006DA0FFF7F1FA714F002210213846FDF7ED
:1030700004FF002240213846FDF7FFFE05F1600005
:10308000129008301190A01D1090201D05F1580BD2
:1030900005F1500A05F14807A61C05F138090F9003
:1030A00008F101085FEAC87051D1FDF795FC039063
:1030B000FDF737FA0890FDF719FA0399FDF7ABF819
:1030C0005B4D2946FDF7AAF8FDF72BFA079005207E
:1030D000FEF776FD0090FDF724FA0690FDF706FA5C
:1030E0000099FDF798F82946FDF798F8FDF719FAC9
:1030F0000590FDF773FD0290FDF788FD01900298A1
:10310000002801DC002002900198002801DC00204A
:10311000019048A0FFF798FA0398FDF71BFA0246C2
:103120000B464BA0FFF790FA0098FDF713FA024602
:103130000B464BA0FFF788FA4EA00299FFF784FADE
:1031400050A00199FFF780FA3AA0FFF77DFA102509
:103150002146484602230095089AFFF7D1F82146F8
:10316000384610232E22FFF75FF8214650460123F0
:103170000095079AFFF7C4F82146584610234322CA
:10318000FFF752F83146484602230095069AFFF7AA
:10319000B7F83146384610232E22FFF745F8009540
:1031A000314650460123059AFFF7AAF831465846A2
:1031B00010236322FFF738F8314610236D2212984E
:1031C000FFF732F8009538460423029A0F99FFF76B
:1031D00097F8102367220F991198FFF725F80095AB
:1031E00038460423019A1099FFF78AF8DDE9101098
:1031F00010236722FFF718F852E7000044533138D4
:10320000423230BDD3C8EBCAA7B0DCA3ACC7EBD603
:10321000D8CAD4210D0A000044533138423230BD9F
:10322000D3C8EBB3C9B9A6210D0A000000080140BC
:10323000000020413D3D3D3D3D3D3D3D3D3D3D3D51
:103240003D3D3D3D3D3D3D3D3D3D0D0A0000000005
:10325000CEC2B6C8D6B5A3BA252E3166430D0A0034
:10326000BEE0C0EBD6B5A3BA252E3166636D0D0A5C
:1032700000000000D1B9C1A6D7F3D6B5A3BA256422
:10328000670D0A00D1B9C1A6D3D2D6B5A3BA2564B9
:10329000670D0A000246012000E05043491EC9B2F2
:1032A000FBD270470000000000000000002F00006B
:1032B00000000700070000147F147F1400242A7FF9
:1032C0002A12006264081323003649552250000078
:1032D0000503000000001C224100000041221C00E8
:1032E0000014083E08140008083E0808000000A06A
:1032F0006000000808080808000060600000002066
:1033000010080402003E5149453E0000427F400043
:10331000004261514946002141454B3100181412C9
:103320007F10002745454539003C4A494930000196
:103330007109050300364949493600064949291EE5
:103340000000363600000000563600000008142247
:103350004100001414141414000041221408000247
:103360000151090600324959513E007C1211127C6C
:10337000007F49494936003E41414122007F414199
:10338000221C007F49494941007F09090901003E8B
:103390004149497A007F0808087F0000417F4100C9
:1033A000002040413F01007F08142241007F40403F
:1033B0004040007F020C027F007F0408107F003E27
:1033C0004141413E007F09090906003E4151215E0D
:1033D000007F091929460046494949310001017F0A
:1033E0000101003F4040403F001F2040201F003FA0
:1033F0004038403F00631408146300070870080752
:1034000000615149454300007F41410000552A5564
:103410002A55000041417F000004020102040040DF
:103420004040404000000102040000205454547801
:10343000007F484444380038444444200038444421
:10344000487F00385454541800087E0901020018BF
:10345000A4A4A47C007F080404780000447D4000FC
:10346000004080847D00007F102844000000417FE0
:103470004000007C04180478007C080404780038BC
:103480004444443800FC242424180018242418FC44
:10349000007C0804040800485454542000043F44AD
:1034A0004020003C4040207C001C2040201C003C70
:1034B0004030403C004428102844001CA0A0A07CC0
:1034C000004464544C4414141414141400000000F8
:1034D000000000000000000000000000000000F8F4
:1034E00000000000000000333000000000100C0657
:1034F000100C0600000000000000000040C07840F2
:10350000C0784000043F04043F040400007088FCBD
:1035100008300000001820FF211E0000F008F00015
:10352000E018000000211C031E211E0000F0088886
:10353000700000001E2123241927211010160E00F0
:10354000000000000000000000000000000000E09B
:1035500018040200000000071820400000020418B0
:10356000E00000000040201807000000404080F00C
:10357000804040000202010F01020200000000F042
:10358000000000000101011F010101000000000016
:103590000000000080B0700000000000000000008B
:1035A0000000000000010101010101010000000014
:1035B00000000000003030000000000000000000AB
:1035C00080601804006018060100000000E0100888
:1035D0000810E000000F102020100F00001010F85D
:1035E000000000000020203F20200000007008089C
:1035F000088870000030282422213000003008881C
:10360000884830000018202020110E000000C02043
:1036100010F8000000070424243F240000F8088864
:10362000880808000019212020110E0000E01088F1
:1036300088180000000F112020110E000038080823
:10364000C83808000000003F000000000070880833
:1036500008887000001C222121221C0000E01008B4
:103660000810E0000000312222110F00000000C00D
:10367000C0000000000000303000000000000080AA
:10368000000000000000806000000000000080409A
:1036900020100800000102040810200040404040B3
:1036A0004040400004040404040404000008102006
:1036B000408000000020100804020100007048084B
:1036C0000808F0000000003036010000C030C828B3
:1036D000E810E0000718272423140B000000C0386E
:1036E000E0000000203C23020227382008F88888E8
:1036F00088700000203F202020110E00C0300808F4
:1037000008083800071820202010080008F80808CA
:103710000810E000203F202020100F0008F88888C3
:10372000E8081000203F20202320180008F888888F
:10373000E8081000203F200003000000C030080807
:103740000838000007182020221E020008F8080090
:103750000008F808203F210101213F20000808F857
:10376000080800000020203F20200000000008087A
:10377000F8080800C08080807F00000008F888C03A
:1037800028180800203F20012638200008F80800EB
:1037900000000000203F20202020300008F8F80022
:1037A000F8F80800203F003F003F200008F830C034
:1037B0000008F808203F200007183F00E010080824
:1037C0000810E0000F10202020100F0008F8080853
:1037D0000808F000203F210101010000E010080866
:1037E0000810E0000F18242438504F0008F888888B
:1037F00088887000203F2000030C3020007088086B
:10380000080838000038202121221C00180808F878
:10381000080818000000203F2000000008F80800F9
:103820000008F808001F202020201F0008788800CA
:1038300000C83808000007380E010000F80800F83A
:103840000008F800033C0700073C030008186880E4
:103850008068180820302C03032C30200838C8005A
:10386000C83808000000203F2000000010080808A9
:10387000C83808002038262120201800000000FE4B
:10388000020202000000007F40404000000C30C0F7
:1038900000000000000000010638C0000002020223
:1038A000FE000000004040407F00000000000402D5
:1038B0000202040000000000000000000000000000
:1038C00000000000808080808080808000020204F0
:1038D00000000000000000000000000000008080E8
:1038E000808000000019242222223F2008F8008056
:1038F00080000000003F112020110E000000008019
:1039000080800000000E11202020110000000080A7
:103910008088F800000E112020103F2000008080D9
:1039200080800000001F222222221300008080F0ED
:10393000888888180020203F202000000000808018
:1039400080808000006B94949493600008F800805D
:1039500080800000203F210000203F2000809898B8
:10396000000000000020203F202000000000008018
:103970009898000000C08080807F000008F8000058
:1039800080808000203F24022D302000000808F8AD
:10399000000000000020203F202000008080808068
:1039A00080808000203F20003F20003F80800080FA
:1039B00080800000203F210000203F200000808008
:1039C00080800000001F202020201F0080800080B9
:1039D0008000000080FFA12020110E000000008068
:1039E00080808000000E112020A0FF808080800059
:1039F0008080800020203F21200001000000808086
:103A0000808080000033242424241900008080E07A
:103A1000808000000000001F202000008080000047
:103A200000808000001F202020103F208080800028
:103A30000080808000010E30080601008080008038
:103A4000008080800F300C030C300F00008080005D
:103A5000808080000020312E0E3120008080800088
:103A60000080808080818E70180601000080808038
:103A7000808080000021302C2221300000000000D6
:103A8000807C020200000000003F40400002027CF7
:103A9000800000000040403F0000000000000000E7
:103AA000FF00000000000000FF0000001060028C1A
:103AB0000000FE9292929292FE0000000000000030
:103AC00000000000000000000000000000000000F6
:103AD00000000000000000000000000000000000E6
:103AE00000000000000000000000000000000000D6
:103AF00000000000000000000000000000000000C6
:103B000000000000000000000000000000000000B5
:103B100000000000000000000000000000000000A5
:103B20000000000000000000000000000000000095
:103B30000000000000000000000000000000000085
:103B40000000000000000000000000000000000075
:103B50000000000000000000000000000000000065
:103B60000000000000000000000000000000000055
:103B70000000000000000000000000000000000045
:103B80000000000000000000000000000000000035
:103B90000000000000000000000000000000000025
:103BA000000000000000000000000004047E01404E
:103BB0007E42427E427E42427E4000000000000083
:103BC00000000000000000000000000000000000F5
:103BD00000000000000000000000000000000000E5
:103BE00000000000000000000000000000000000D5
:103BF00000000000000000000000000000000000C5
:103C000000000000000000000000000000000000B4
:103C100000000000000000000000000000000000A4
:103C20000000000000000000000000000000000094
:103C30000000000000000000000000000000000084
:103C40000000000000000000000000000000000074
:103C50000000000000000000000000000000000064
:103C60000000000000000000000000000000000054
:103C70000000000000000000000000000000000044
:103C80000000000000000000000000000000000034
:103C90000000000000000000000000000000000024
:103CA000000000000000000000000000FC242424AC
:103CB000FC252624FC24242404000000000000002D
:103CC00000000000000000000000000000000000F4
:103CD00000000000000000000000000000000000E4
:103CE00000000000000000000000000000000000D4
:103CF00000000000000000000000000000000000C4
:103D000000000000000000000000000000000000B3
:103D100000000000000000000000000000000000A3
:103D20000000000000000000000000000000000093
:103D30000000000000000000000000000000000083
:103D40000000000000000000000000000000000073
:103D50000000000000000000000000000000000063
:103D60000000000000000000000000000000000053
:103D70000000000000000000000000000000000043
:103D80000000000000000000000000000000000033
:103D90000000000000000000000000000000000023
:103DA00000000000000000000040308F80844C556F
:103DB000252525554C808080000000000000000073
:103DC00000000000000000000000000000000000F3
:103DD00000000000000000000000000000000000E3
:103DE00000000000000000000000000000000000D3
:103DF00000000000000000000000000000000000C3
:103E000000000000000000000000000000000000B2
:103E100000000000000000000000000000000000A2
:103E20000000000000000000000000000000000092
:103E30000000000000000000000000000000000082
:103E40000000000000000000000000000000000072
:103E50000000000000000000000000000000000062
:103E60000000000000000000000000000000000052
:103E70000000000000000000000000000000000042
:103E80000000000000000000000000000000000032
:103E90000000000000000000000000000000000022
:103EA0000000000000000000003E22E2223E00FE72
:103EB0002222222222E20200000000000000000074
:103EC00000000000000000000000000000000000F2
:103ED00000000000000000000000000000000000E2
:103EE00000000000000000000000000000000000D2
:103EF00000000000000000000000000000000000C2
:103F000000000000000000000000000000000000B1
:103F100000000000000000000000000000000000A1
:103F20000000000000000000000000000000000091
:103F30000000000000000000000000000000000081
:103F40000000000000000000000000000000000071
:103F50000000000000000000000000000000000061
:103F60000000000000000000000000000000000051
:103F70000000000000000000000000000000000041
:103F80000000000000000000000000000000000031
:103F90000000000000000000000000000000000021
:103FA00000000000000000203F201F1111007F448E
:103FB000444444444740000000000000000000006A
:103FC00000000000000000000000000000000000F1
:103FD00000000000000000000000000000000000E1
:103FE00000000000000000000000000000000000D1
:103FF00000000000000000000000000000000000C1
:1040000000000000000000000000000000000000B0
:1040100000000000000000000000000000000000A0
:104020000000000000000000000000000000000090
:104030000000000000000000000000000000000080
:104040000000000000000000000000000000000070
:104050000000000000000000000000000000000060
:104060000000000000000000000000000000000050
:104070000000000000000000000000000000000040
:104080000000000000000000000000000000000030
:104090000000000000000000000000000000000020
:1040A000000000000000040404F484D4A5A6A4D4F5
:1040B00084F404040400000000000000000000007C
:1040C00000000000000000000000000000000000F0
:1040D00000000000000000000000000000000000E0
:1040E00000000000000000000000000000000000D0
:1040F00000000000000000000000000000000000C0
:1041000000000000000000000000000000000000AF
:10411000000000000000000000000000000000009F
:10412000000000000000000000000000000000008F
:10413000000000000000000000000000000000007F
:10414000000000000000000000000000000000006F
:10415000000000000000000000000000000000005F
:10416000000000000000000000000000000000004F
:10417000000000000000000000000000000000003F
:10418000000000000000000000000000000000002F
:10419000000000000000000000000000000000001F
:1041A000000000000000FE0202123A1613121A323A
:1041B00042827E00000000000000000000000000BD
:1041C00000000000000000000000000000000000EF
:1041D00000000000000000000000000000000000DF
:1041E00000000000000000000000000000000000CF
:1041F00000000000000000000000000000000000BF
:1042000000000000000000000000000000000000AE
:10421000000000000000000000000000000000009E
:10422000000000000000000000000000000000008E
:10423000000000000000000000000000000000007E
:10424000000000000000000000000000000000006E
:10425000000000000000000000000000000000005E
:10426000000000000000000000000000000000004E
:10427000000000000000000000000000000000003E
:10428000000000000000000000000000000000002E
:10429000000000000000000000000000000000001E
:1042A000000000000000FE0282828282FA82828286
:1042B00082820200000000000000000000000000F8
:1042C00000000000000000000000000000000000EE
:1042D00000000000000000000000000000000000DE
:1042E00000000000000000000000000000000000CE
:1042F00000000000000000000000000000000000BE
:1043000000000000000000000000000000000000AD
:10431000000000000000000000000000000000009D
:10432000000000000000000000000000000000008D
:10433000000000000000000000000000000000007D
:10434000000000000000000000000000000000006D
:10435000000000000000000000000000000000005D
:10436000000000000000000000000000000000004D
:10437000000000000000000000000000000000003D
:10438000000000000000000000000000000000002D
:10439000000000000000000000000000000000001D
:1043A00000000080601F40404040407F4040445833
:1043B000404000000000000000000000000000007D
:1043C00000000000000000000000000000000000ED
:1043D00000000000000000000000000000000000DD
:1043E00000000000000000000000000000000000CD
:1043F00000000000000000000000000000000000BD
:1044000000000000000000000000000000000000AC
:10441000000000000000000000000000000000009C
:10442000000000000000000000000000000000008C
:10443000000000000000000000000000000000007C
:10444000000000000000000000000000000000006C
:10445000000000000000000000000000000000005C
:10446000000000000000000000000000000000004C
:10447000000000000000000000000000000000003C
:10448000000000000000000000000000000000002C
:10449000000000000000000000000000000000001C
:1044A0000000001010101010FF1010101010F0007D
:1044B00000000000000000000000000000000000FC
:1044C00000000000000000000000000000000000EC
:1044D00000000000000000000000000000000000DC
:1044E00000000000000000000000000000000000CC
:1044F00000000000000000000000000000000000BC
:1045000000000000000000000000000000000000AB
:10451000000000000000000000000000000000009B
:10452000000000000000000000000000000000008B
:10453000000000000000000000000000000000007B
:10454000000000000000000000000000000000006B
:10455000000000000000000000000000000000005B
:10456000000000000000000000000000000000004B
:10457000000000000000000000000000000000003B
:10458000000000000000000000000000000000002B
:10459000000000000000000000000000000000001B
:1045A000000080402018060100204080403F0000AD
:1045B00000000000000000000000000000000000FB
:1045C00000000000000000000000000000000000EB
:1045D00000000000000000000000000000000000DB
:1045E00000000000000000000000000000000000CB
:1045F00000000000000000000000000000000000BB
:1046000000000000000000000000000000000000AA
:10461000000000000000000000000000000000009A
:10462000000000000000000000000000000000008A
:10463000000000000000000000000000000000007A
:10464000000000000000000000000000000000006A
:10465000000000000000000000000000000000005A
:10466000000000000000000000000000000000004A
:10467000000000000000000000000000000000003A
:10468000000000000000000000000000000000002A
:10469000000000000000000000000000000000001A
:1046A0000808080888780F0808080808080808009B
:1046B00000000000000000000000000000000000FA
:1046C00000000000000000000000000000000000EA
:1046D00000000000000000000000000000000000DA
:1046E00000000000000000000000000000000000CA
:1046F00000000000000000000000000000000000BA
:1047000000000000000000000000000000000000A9
:104710000000000000000000000000000000000099
:104720000000000000000000000000000000000089
:104730000000000000000000000000000000000079
:104740000000000000000000000000000000000069
:104750000000000000000000000000000000000059
:104760000000000000000000000000000000000049
:104770000000000000000000000000000000000039
:104780000000000000000000000000000000000029
:1047900000000000000000000000000000000020F9
:1047A000104846414141417F414141414040000064
:1047B00000000000000000000000000000000000F9
:1047C00000000000000000000000000000000000E9
:1047D00000000000000000000000000000000000D9
:1047E00000000000000000000000000000000000C9
:1047F00000000000000000000000000000000000B9
:1048000000000000000000000000000000000000A8
:104810000000000000000000000000000000000098
:104820000000000000000000000000000000000088
:104830000000000000000000000000000000000078
:104840000000000000000000000000000000000068
:104850000000000000000000000000000000000058
:104860000000000000000000000000000000000048
:104870000000000000000000000000000000000038
:104880000000000000000000000000000000000028
:104890000000000000000000000000000000080808
:1048A0000808C8380F0808080808080808000000A9
:1048B00000000000000000000000000000000000F8
:1048C00000000000000000000000000000000000E8
:1048D00000000000000000000000000000000000D8
:1048E00000000000000000000000000000000000C8
:1048F00000000000000000000000000000000000B8
:1049000000000000000000000000000000000000A7
:104910000000000000000000000000000000000097
:104920000000000000000000000000000000000087
:104930000000000000000000000000000000000077
:104940000000000000000000000000000000000067
:104950000000000000000000000000000000000057
:104960000000000000000000000000000000000047
:104970000000000000000000000000000000000037
:104980000000000000000000000000000000000027
:104990000000000000000000000000000008040209
:1049A00001FF41414141414141FF00000000000041
:1049B00000000000000000000000000000000000F7
:1049C00000000000000000000000000000000000E7
:1049D00000000000000000000000000000000000D7
:1049E00000000000000000000000000000000000C7
:1049F00000000000000000000000000000000000B7
:104A000000000000000000000000000000000000A6
:104A10000000000000000000000000000000000096
:104A20000000000000000000000000000000000086
:104A30000000000000000000000000000000000076
:104A40000000000000000000000000000000000066
:104A50000000000000000000000000000000000056
:104A60000000000000000000000000000000000046
:104A70000000000000000000000000000000000036
:104A80000000000000000000000000000000000026
:104A9000000000000000000000000000008060F83E
:104AA0000704E4A4A4BFA4A4E404000000000000E0
:104AB00000000000000000000000000000000000F6
:104AC00000000000000000000000000000000000E6
:104AD00000000000000000000000000000000000D6
:104AE00000000000000000000000000000000000C6
:104AF00000000000000000000000000000000000B6
:104B000000000000000000000000000000000000A5
:104B10000000000000000000000000000000000095
:104B20000000000000000000000000000000000085
:104B30000000000000000000000000000000000075
:104B40000000000000000000000000000000000065
:104B50000000000000000000000000000000000055
:104B60000000000000000000000000000000000045
:104B70000000000000000000000000000000000035
:104B80000000000000000000000000000000000025
:104B90000000000000000000000000010000FF40D5
:104BA000407F4A4A4A4A4A7F4040000000000000D5
:104BB00000000000000000000000000000000000F5
:104BC00000000000000000000000000000000000E5
:104BD00000000000000000000000000000000000D5
:104BE00000000000000000000000000000000000C5
:104BF00000000000000000000000000000000000B5
:104C000000000000000000000000000000000000A4
:104C10000000000000000000000000000000000094
:104C20000000000000000000000000000000000084
:104C30000000000000000000000000000000000074
:104C40000000000000000000000000000000000064
:104C50000000000000000000000000000000000054
:104C60000000000000000000000000000000000044
:104C70000000000000000000000000000000000034
:104C80000000000000000000000000000000000024
:104C90000000000000000000000000000000000014
:104CA00000000102030406070809000000000102D9
:104CB00003040000D44C000800000020480000005D
:104CC000882600081C4D000848000020E004000071
:104CD000982600080000000000000000000000000E
:104CE000000000000000000000000000AE001040C6
:104CF000B081FFA1A6A83FC8D300D580D805D9F1BF
:104D0000DA12D8308D14AF0001000000100000004E
:0C4D1000000000000024F400000000007F
:04000005080000ED02
:00000001FF
